:100000000C9434000C9449000C9449000C94490061
:100010000C9449000C9449000C9449000C9449003C
:100020000C9449000C9449000C9449000C9449002C
:100030000C9449000C9449000C9449000C9449001C
:100040000C9449000C9449000C9449000C9449000C
:100050000C9449000C9449000C9449000C944900FC
:100060000C9449000C94490011241FBECFEFD8E036
:10007000DEBFCDBF11E0A0E0B1E0E6E9F3E002C0F1
:1000800005900D92AA30B107D9F70E9480010C9417
:10009000C2010C9400009C018038910584F181E03C
:1000A00090E02F3F310539F034F0203881E03807F7
:1000B00024F482E090E00C944001211582E038079E
:1000C0001CF483E090E0F7CF203882E038071CF47E
:1000D00084E090E0F0CF211583E038071CF485E040
:1000E00090E0E9CF203883E038071CF486E090E008
:1000F000E2CF211534401CF487E090E0DCCF089576
:10010000E0910001F0910101158287E684838181ED
:10011000886181838281836082830895E0910001F8
:10012000F0910101908195FFFDCF86830895E091C4
:100130000001F0910101808187FFFDCF8681089544
:10014000CF93DF93EC018991811108C08DE00E946B
:100150008E008AE0DF91CF910C948E000E948E0079
:10016000F2CFCF93DF93CDB7DEB728970FB6F894D1
:10017000DEBF0FBECDBF19821A821B821C82A0E790
:10018000B7E19B01AC010E94A8016D837E838F8340
:10019000988789819A81AB81BC812D813E814F8175
:1001A000588582179307A407B50748F028960FB61D
:1001B000F894DEBF0FBECDBFDF91CF910895898146
:1001C0009A81AB81BC810196A11DB11D89839A835F
:1001D000AB83BC83DECF2998219A2A98229A2B9848
:1001E000239A0895CF93DF936EE170E080E090E072
:1001F0000E94B10085B1C2E08C2785B96EE170E044
:1002000080E090E00E94B10085B1D6E08D2785B9ED
:100210006EE170E080E090E00E94B10085B18C2733
:1002200085B96EE170E080E090E00E94B10085B198
:100230009EE0892785B96EE170E080E090E00E9441
:10024000B10085B18C2785B96EE170E080E090E067
:100250000E94B10085B18D2785B96EE170E080E024
:1002600090E00E94B10085B1C827C5B96EE170E089
:1002700080E090E00E94B100DF91CF910C94EB0000
:10028000CF93FC013197E730F10588F4EC53FE4F32
:1002900095B10C94A201C2E09C2795B962E870E088
:1002A00080E090E00E94B10085B18C2785B9CF91A4
:1002B0000895C4E0F1CFC6E0EFCFC8E0EDCFCAE0CB
:1002C000EBCFCCE0E9CFCEE0E7CFE0910801F091B1
:1002D0000901828180688283828187608283848130
:1002E000806C84830895E0910801F0910901828176
:1002F00080648283828184FFFDCF90818181089513
:100300000E9480000E94EB000E94650183E70E942A
:100310008E0084E70E948E0081E60E948E0082E7B4
:100320000E948E0084E70E948E008DE00E948E0065
:100330008AE00E948E000E947301C82F0E944B0029
:100340008C2FF7CFEE0FFF1F0590F491E02D09944D
:100350000E94B301A59F900DB49F900DA49F800DA6
:10036000911D11240895A29FB001B39FC001A39FC6
:10037000700D811D1124911DB29F700D811D1124DE
:10038000911D0895F894FFCF4B0159015B015D0168
:060390005F016101630141
:0A039600C0002300240025007800B9
:00000001FF
