:100000000C943B000C9458000C9458000C9458002D
:100010000C9458000C9458000C9458000C94580000
:100020000C9458000C9458000C9458000C945800F0
:100030000C9458000C9458000C9458000C945800E0
:100040000C9458000C9458000C9458000C945800D0
:100050000C9458000C9458000C9458000C945800C0
:100060000C9458000C945800DF00E500E100F1000A
:10007000E700ED00E90011241FBECFEFD8E0DEBF9E
:10008000CDBF11E0A0E0B1E0E0E2F2E002C00590F7
:100090000D92A830B107D9F721E0A8E0B1E001C086
:1000A0001D92AC30B207E1F70E9401010C940E01E1
:1000B0000C9400002A9829982C982B98229A219A1F
:1000C000249A1B9A0895CF93DF9300D000D0CDB728
:1000D000DEB719821A821B821C8289819A81AB81C8
:1000E000BC8180379949A441B10560F489819A8126
:1000F000AB81BC810196A11DB11D89839A83AB831D
:10010000BC83EBCF0F900F900F900F90DF91CF91AA
:10011000089583B190E090930B0180930A01809140
:100120000A0190910B018870992790930B0180939D
:100130000A0180910A0190910B0183B980910A0113
:1001400090910B010897C1F48091080190910901E9
:10015000019741F410920901109208012A982998F8
:100160002C980AC081E090E09093090180930801E7
:100170009093010180930001809108019091090101
:10018000892B69F495B184E0892785B995B182E01E
:10019000892785B995B180E1892785B908952A987D
:1001A00029982C98E0910001F09101013197E730F6
:1001B000F10500F5EC5CFF4F95B10C94080180E16E
:1001C00011C080E1892785B995B182E00BC080E13B
:1001D00005C080E1892785B995B182E0892785B975
:1001E00095B184E0892785B9809100019091010142
:1001F000019602C081E090E090930101809300019C
:1002000008950E945A000E9463000E948900FBCF5B
:10021000EE0FFF1F0590F491E02D0994F894FFCFA5
:08022000010023002400250069
:00000001FF
