:100000000C9434000C9449000C9449000C94490061
:100010000C9449000C9449000C9449000C9449003C
:100020000C9449000C9449000C9449000C9449002C
:100030000C9449000C9449000C9449000C9449001C
:100040000C9449000C9449000C9449000C9449000C
:100050000C9449000C9449000C9449000C944900FC
:100060000C9449000C94490011241FBECFEFD8E036
:10007000DEBFCDBF11E0A0E0B1E0ECE0F1E002C0F6
:1000800005900D92A630B107D9F70E947B000C9421
:1000900084000C9400002D98259A0895CF93DF9347
:1000A00000D000D0CDB7DEB719821A821B821C8225
:1000B00089819A81AB81BC81803D9D4DA640B1056F
:1000C00060F489819A81AB81BC810196A11DB11D2B
:1000D00089839A83AB83BC83EBCF0F900F900F90F3
:1000E0000F90DF91CF91089595B180E2892785B96E
:1000F00008950C9474000E944E000E9479000E94A2
:0C0100004E000E947400F7CFF894FFCF6F
:06010C0023002400250081
:00000001FF
