:100000000C9434000C9451000C9451000C94510049
:100010000C9451000C9451000C9451000C9451001C
:100020000C9451000C9451000C9451000C9451000C
:100030000C9451000C9451000C9451000C945100FC
:100040000C9451000C9451000C9451000C945100EC
:100050000C9451000C9451000C9451000C945100DC
:100060000C9451000C94510011241FBECFEFD8E026
:10007000DEBFCDBF11E0A0E0B1E0E6EDF2E002C0EE
:1000800005900D92A830B107D9F721E0A8E0B1E0C2
:1000900001C01D92AA30B207E1F70E9462010C94E0
:1000A00069010C940000289829982A982B982C987C
:1000B0002D98209A219A229A239A249A259A089573
:1000C000CF93DF9300D000D0CDB7DEB719821A826C
:1000D0001B821C8289819A81AB81BC8180349C49BE
:1000E000A105B10560F489819A81AB81BC8101963B
:1000F000A11DB11D89839A83AB83BC83EBCF0F9085
:100100000F900F900F90DF91CF910895CF93DF93D1
:1001100000D000D0CDB7DEB719821A821B821C82B4
:1001200089819A81AB81BC8180319742A105B1055B
:1001300060F489819A81AB81BC810196A11DB11DBA
:1001400089839A83AB83BC83EBCF0F900F900F9082
:100150000F90DF91CF910895289829982A982B988D
:100160002C982D982091080130910901809100016F
:1001700090910101232B09F051C083309105F9F0D2
:1001800074F48130910591F00297D9F595B182E030
:10019000892785B90E94860095B184E018C0853012
:1001A000910531F1E4F0069749F12BC095B181E05A
:1001B000892785B90E94860095B182E008C095B173
:1001C00084E0892785B90E94860095B188E0892757
:1001D00085B98091000190910101019663C095B1AC
:1001E00088E0892785B90E94860095B180E1EFCF2C
:1001F00095B180E1892785B90E94860095B180E29A
:10020000E6CF86E090E0909301018093000181E0C9
:1002100090E090930901809308010895833091053F
:1002200001F16CF481309105C9F0029709F03FC0EB
:1002300095B182E0892785B90E9486000FC085307C
:10024000910509F1BCF0069791F595B180E28927F7
:1002500085B90E94860095B180E11DC095B181E00D
:100260001AC095B184E0892785B90E94860095B1AE
:1002700082E011C095B188E0892785B90E94860087
:1002800095B184E008C095B180E1892785B90E94C5
:10029000860095B188E0892785B980910001909109
:1002A000010101979093010180930001089582E07C
:1002B00090E0909301018093000110920901109247
:1002C000080108950E9453000E9460000E94AC0043
:0602D000FBCFF894FFCF04
:0802D6000100230024002500B3
:00000001FF
